:100000000C9434000C9449000C9449000C94490061
:100010000C9449000C9449000C9449000C9449003C
:100020000C9449000C9449000C9449000C9449002C
:100030000C9449000C9449000C9449000C9449001C
:100040000C9449000C9449000C9449000C9449000C
:100050000C9449000C9449000C9449000C944900FC
:100060000C9449000C94490011241FBECFEFD8E036
:10007000DEBFCDBF11E0A0E0B1E0E0EDF5E002C0F1
:1000800005900D92A839B107D9F70E94B3000C94DE
:10009000E6020C94000087B1806287B987B1806165
:1000A00087B9E8EBF0E080E2808384E48083089500
:1000B00084EE8093BC008091BC008823E4F708950F
:1000C0008093BB0084EC8093BC008091BC008823AB
:1000D000E4F7089584EC8093BC008091BC008823F1
:1000E000E4F78091BB00089584E88093BC00809180
:1000F000BC008823E4F78091BB00089584ED8093D1
:10010000BC000895982F92959F70990F292F220F68
:10011000220F920F8F70890F08959DEC899F912D6A
:10012000112496959695969520E1929FA001112411
:10013000990F292F220F220F920F891B842B0895CC
:100140001F93CF93DF93182FEB0187E091E00E947C
:100150007F02812F0E949502CE010E947F02DF91D3
:10016000CF911F910895CF93DF93CDB7DEB7279737
:100170000FB6F894DEBF0FBECDBF0E944B0042E029
:1001800060E875E280E090E00E94530189E091E030
:100190000E947F0287E0E0E0F1E0DE01119601902D
:1001A0000D928A95E1F70E94580080ED0E94600050
:1001B00080E00E9460008DE191E00E947F0210E0EB
:1001C00017C087E091E00E947F02812F0E94950274
:1001D0008FE291E00E947F02E1E0F0E0EC0FFD1F72
:1001E000E10FF11D80810E948D000E9460001F5F61
:1001F000173038F30E947E002FEF87EA91E62150F6
:1002000080409040E1F700C000000E94580080ED5F
:100210000E94600080E00E9460000E947E000E94B8
:10022000580081ED0E94600081E491E00E947F020D
:100230000E946A000E9482006BE571E00E94A000AB
:100240000E946A000E94820064E671E00E94A000A1
:100250000E946A000E9482006DE671E00E94A00088
:100260000E946A000E94820064E771E00E94A00080
:100270000E946A000E94820062E871E00E94A00071
:100280000E946A000E94820068E871E00E94A0005B
:100290000E9474000E94820060E971E00E94A00048
:1002A0000E947E00FFCF423031F4E0ECF0E030817C
:1002B0003260308304C0413011F41092C0001092BB
:1002C000C500413009F07FC0611526E9720781053C
:1002D000910509F466C058F5603825E2720781057A
:1002E000910509F456C070F4603629E07207810563
:1002F000910509F44CC0603C72418105910509F4F7
:10030000E4C05FC061152BE472078105910509F413
:1003100044C0603820E772078105910509F43FC0A9
:10032000603478438105910509F04BC034C06115F4
:1003300024E8720723E082079105D9F1A0F4611542
:100340002CE2720721E08207910579F1611522EC18
:10035000720721E08207910551F16115714E810507
:10036000910579F520C0603221EA720727E0820703
:10037000910519F1603422E472072FE0820791059C
:10038000F1F06039704D83409105D9F414C020EA32
:100390009FC027E69DC024E49BC023E399C022E2CE
:1003A00097C029E195C020E193C02CE091C028E0DE
:1003B0008FC023E08DC023E08BC021E089C020E006
:1003C00087C027E685C0423009F082C0611526E962
:1003D00072078105910509F466C058F5603825E279
:1003E00072078105910509F456C070F4603629E062
:1003F00072078105910509F44CC0603C724181058A
:10040000910509F464C05FC061152BE47207810592
:10041000910509F444C0603820E772078105910511
:1004200009F43FC0603478438105910509F04BC061
:1004300034C0611524E8720723E082079105D9F1E1
:10044000A0F461152CE2720721E08207910579F191
:10045000611522EC720721E08207910551F16115C7
:10046000714E8105910579F520C0603221EA72074D
:1004700027E08207910519F1603422E472072FE02A
:1004800082079105F1F06039704D83409105D9F4F0
:1004900014C020E41DC02FEC1BC02AE819C027E6B9
:1004A00017C024E415C023E313C022E211C029E1E0
:1004B0000FC020E10DC028E00BC027E009C023E0F9
:1004C00007C021E005C02FEC03C02FEC01C020EADB
:1004D0002093C400E2ECF0E0808186608083E1EC50
:1004E000F0E08081806180838081886080830895CE
:1004F0009091C00095FFFCCF8093C60008950F93A4
:100500001F93CF93DF938C01C0E0D0E003C00E9423
:1005100078022196F801EC0FFD1F80818111F7CF41
:10052000DF91CF911F910F9108950F931F93CF9358
:10053000DF9300D000D0CDB7DEB720E330E03A83C0
:1005400029831C821B8281111DC000E010E033C092
:10055000E1E0F0E0EC0FFD1FE00FF11F9DEC899F43
:10056000912D1124969596959695392F330F232F1B
:10057000220F220F230F821B805D8083892F0F5F44
:100580001F4F02C000E010E08111E2CFE1E0F0E097
:10059000EC0FFD1FE00FF11F1082015011090BC07D
:1005A000E1E0F0E0EC0FFD1FE00FF11F80810E9401
:1005B00078020150110911239CF70F900F900F90B2
:1005C0000F90DF91CF911F910F910895F894FFCF75
:1005D00038220C0201090E20002A205541525420D5
:1005E00069732072656164792E2E2E0A002A2053C9
:1005F000657474696E67205254432E2E2E0A00745F
:100600006820627974652077726974652E2E2E0ACF
:10061000002A2054696D652F446174652052657409
:1006200072696576616C2E2E2E0A00207365636FE9
:100630006E640A00206D696E7574650A0020686F2B
:1006400075720A0020646179206F66207765656B9A
:100650000A00206461790A00206D6F6E74680A00D8
:0806600020796561720A0000B7
:00000001FF
