:100000000C9434000C9449000C9449000C94490061
:100010000C9449000C9449000C9449000C9449003C
:100020000C9449000C9449000C9449000C9449002C
:100030000C9449000C9449000C9449000C9449001C
:100040000C9449000C9449000C9449000C9449000C
:100050000C9449000C9449000C9449000C944900FC
:100060000C9449000C94490011241FBECFEFD8E036
:10007000DEBFCDBF11E0A0E0B1E0E0E0F2E002C001
:1000800005900D92AA30B107D9F70E944B000C944D
:10009000FE000C940000CF93DF93CDB7DEB72A9714
:1000A0000FB6F894DEBF0FBECDBF8AE0E0E0F1E00E
:1000B000DE01119601900D928A95E1F78FEF8AB9D2
:1000C0008FE084B928EE33E002C028EE33E0C901A6
:1000D00068EE73E00E94D6007B01C90164E670E01F
:1000E0000E94D600CB010F2EFAE0CF2ED12CF02D9E
:1000F000B6010E94D6008C01C901B6010E94D6004B
:10010000FC01CB01B6010E94D6004EE045B9A1E04A
:10011000B0E0AC0FBD1FAE0DBF1D4C914BB9AFE1B0
:10012000BEE41197F1F700C000004DE045B9A1E031
:10013000B0E0AC0FBD1FA00FB11F4C914BB9AFE1A8
:10014000BEE41197F1F700C000004BE045B9A1E013
:10015000B0E0AC0FBD1FA80FB91F8C918BB98FE118
:100160009EE40197F1F700C0000087E085B9A1E0A7
:10017000B0E0AC0FBD1FEA0FFB1F80818BB98FE190
:100180009EE40197F1F700C000009FEFA1EEB4E0FC
:100190009150A040B040E1F700C000002F5F3F4FFA
:1001A000203147E2340709F092CF8FCF97FB072E1B
:1001B00016F4009407D077FD09D00E94EA0007FCEE
:1001C00005D03EF4909581959F4F08957095619567
:1001D0007F4F0895AA1BBB1B51E107C0AA1FBB1F7D
:1001E000A617B70710F0A61BB70B881F991F5A95C3
:1001F000A9F780959095BC01CD010895F894FFCFA3
:0A020000FC60DAF266B6BEE4FEE62A
:00000001FF
