S02B000041746D656761313238415F556172745F546573745F666F725F6D616C6C6F635F61727261792E7372A1
S113000045C0000060C000005EC000005CC000008D
S11300105AC0000058C0000056C0000054C0000080
S113002052C0000050C000004EC000004CC0000090
S11300304AC0000048C0000046C0000044C00000A0
S113004042C0000040C000003EC000003CC00000B0
S11300503AC0000038C0000036C0000034C00000C0
S113006032C0000030C000002EC000002CC00000D0
S11300702AC0000028C0000026C0000024C00000E0
S113008022C0000020C000001EC0000011241FBEBA
S1130090CFEFD0E1DEBFCDBF11E0A0E0B1E0ECEDE9
S11300A0F8E000E00BBF02C007900D92A832B10740
S11300B0D9F721E0A8E2B1E001C01D92AC32B20749
S11300C0E1F702D009C49CCF42E060E875E280E029
S11300D090E01FD000E020E04AE061E87FE18BE09F
S11300E090E067D186E191E037D101E021E040E181
S11300F061E87FE18BE090E05CD18AE029D12FEFC9
S113010083ED90E3215080409040E1F700C000006F
S1130110E1CF423021F43BB132603BB903C04130FE
S113012009F41BB810929000413009F07FC06115AA
S113013026E972078105910509F466C058F560380F
S113014025E272078105910509F456C070F4603602
S113015029E072078105910509F44CC0603C7241A5
S11301608105910509F4E4C05FC061152BE47207B1
S11301708105910509F444C0603820E772078105C0
S1130180910509F43FC0603478438105910509F075
S11301904BC034C0611524E8720723E0820791053F
S11301A0D9F1A0F461152CE2720721E082079105D0
S11301B079F1611522EC720721E08207910551F172
S11301C06115714E8105910579F520C0603221EAEF
S11301D0720727E08207910519F1603422E472075F
S11301E02FE082079105F1F06039704D834091054D
S11301F0D9F414C020EA9FC027E69DC024E49BC024
S113020023E399C022E297C029E195C020E193C07D
S11302102CE091C028E08FC023E08DC023E08BC088
S113022021E089C020E087C027E685C0423009F07C
S113023082C0611526E972078105910509F466C03B
S113024058F5603825E272078105910509F456C016
S113025070F4603629E072078105910509F44CC0F9
S1130260603C72418105910509F464C05FC0611569
S11302702BE472078105910509F444C0603820E736
S113028072078105910509F43FC060347843810504
S1130290910509F04BC034C0611524E8720723E0CE
S11302A082079105D9F1A0F461152CE2720721E0CF
S11302B08207910579F1611522EC720721E082072A
S11302C0910551F16115714E8105910579F520C0B3
S11302D0603221EA720727E08207910519F1603440
S11302E022E472072FE082079105F1F06039704D26
S11302F083409105D9F414C020E41DC02FEC1BC029
S11303002AE819C027E617C024E415C023E313C064
S113031022E211C029E10FC020E10DC028E00BC08A
S113032027E009C023E007C021E005C02FEC03C08B
S11303302FEC01C020EA29B9E5E9F0E0808186606C
S113034080838AB180618AB98AB188608AB9089544
S11303505D9BFECF8CB908950F931F93CF93DF93CA
S11303608C01C0E0D0E002C0F3DF2196F801EC0F6D
S1130370FD1F80818111F8CFDF91CF911F910F91E3
S11303800895CF93DF93D42FC0E02D2F30E040E0C9
S113039050E0621773078407950718F481E08C0F07
S11303A005C043D1CA01B901CF5FEFCFDF91CF912F
S11303B008957F928F929F92AF92BF92CF92DF92D5
S11303C0EF92FF920F931F93CF93DF93CDB7DEB7D6
S11303D060970FB6F894DEBF0FBECDBF6B017C01F2
S11303E0942EB22E802ECDDF182F682F70E080E07F
S11303F090E000E020E04AE0DCDF86E191E0ACDF61
S113040081E0B81225C092E0991206C0812F837052
S113041094E0792E781A01C0712C88E098120EC0ED
S11304208BEA189F812D11248695982F990F890F97
S1130430912F981B892F93E0792E781A80E19812D6
S113044005C0812F817092E0792E781A170D01C0B2
S1130450712C012F10E0C8011ED15C0180E1E6E09F
S1130460F1E0DE01119601900D928A95E1F7F50114
S1130470E00FF11F89E191E08083C114D104E1040C
S1130480F10461F5C12CD12C38C0872D90E00817F8
S1130490190734F480E3F501E00FF11F808312C0E3
S11304A0292D30E040E050E0C701B601BED0E1E0C4
S11304B0F0E0EC0FFD1FE60FF71F8081F501E00F60
S11304C0F11F8083292D30E040E050E0C701B601E0
S11304D0ACD069017A010F5F1F4F02C000E010E049
S11304E0C114D104E104F10481F6F501E00FF11F18
S11304F01082680191E0C91AD10881E0881212C003
S113050092E0991203C08BE191E026DF88E0981213
S113051003C08FE191E020DF90E1991203C082E2F1
S113052091E01ADF860155C07801F501E00FF11F53
S113053080810EDF81E088124AC098E09916E1F0CC
S1130540991520F082E0981641F041C09AE099167E
S113055019F180E1981681F13AC093E0E922FF2471
S1130560EF28A9F51016110694F50C151D057CF558
S113057087E191E0F1DE2BC0C80163E070E042D076
S1130580892B29F51016110614F50C151D05FCF41C
S113059087E191E0E1DE1BC0C80163E070E032D086
S11305A0892BA9F41016110694F40C151D057CF47E
S11305B086E291E0D1DE0BC000FD09C010161106E1
S11305C034F40C151D051CF487E191E0C5DE0150DF
S11305D0110911230CF0A8CFC501F5D060960FB610
S11305E0F894DEBF0FBECDBFDF91CF911F910F9165
S11305F0FF90EF90DF90CF90BF90AF909F908F903F
S11306007F90089597FB072E16F4009406D077FD8B
S113061008D02DD007FC05D03EF4909581959F4FCE
S11306200895709561957F4F0895A1E21A2EAA1B33
S1130630BB1BFD010DC0AA1FBB1FEE1FFF1FA2178E
S1130640B307E407F50720F0A21BB30BE40BF50B8B
S1130650661F771F881F991F1A9469F76095709514
S1130660809590959B01AC01BD01CF010895AA1B13
S1130670BB1B51E107C0AA1FBB1FA617B70710F089
S1130680A61BB70B881F991F5A95A9F780959095BB
S1130690BC01CD0108950F931F93CF93DF93823054
S11306A0910510F482E090E0E0912A01F0912B0191
S11306B020E030E0A0E0B0E0309719F140815181B2
S11306C00281138148175907C8F08417950769F404
S11306D0109731F012960C93129713961C9327C01F
S11306E000932A0110932B0122C02115310519F022
S11306F04217530718F49A01BD01EF01DF01F80115
S1130700DBCF21153105F9F0281B390B24303105D5
S113071080F48A819B816115710521F0FB0193832B
S1130720828304C090932B0180932A01FE013296A8
S113073044C0FE01E20FF31F8193919322503109CB
S1130740398328833AC02091280130912901232B31
S113075041F4209102013091030130932901209347
S1130760280120910001309101012115310541F446
S11307702DB73EB74091040150910501241B350B60
S1130780E0912801F0912901E217F307A0F42E1B50
S11307903F0B2817390778F0AC014E5F5F4F2417E1
S11307A0350748F04E0F5F1F5093290140932801ED
S11307B08193919302C0E0E0F0E0CF01DF91CF910B
S11307C01F910F910895CF93DF93009709F481C08F
S11307D0FC01329713821282A0912A01B0912B015D
S11307E0109781F420813181820F931F2091280179
S11307F0309129012817390751F5F0932901E09325
S1130800280167C0ED0120E030E0CE17DF0740F497
S11308104A815B819E0141155105F1F0EA01F5CF52
S1130820D383C28340815181840F951FC817D90790
S113083059F488819981840F951F0296918380834E
S11308408A819B81938382832115310529F4F09356
S11308502B01E0932A013DC0E901FB83EA8349911E
S11308605991C40FD51FEC17FD0761F48081918164
S1130870840F951F0296E90199838883828193816D
S11308809B838A83E0E0F0E012968D919C9113970C
S1130890009719F0FD01DC01F7CF8D919C91119720
S11308A09D012E5F3F4F820F931F209128013091AD
S11308B029012817390769F4309729F410922B017C
S11308C010922A0102C013821282B0932901A093CC
S10F08D02801DF91CF910895F894FFCF28
S11308DC00002C01200030313233343536373839AE
S11308EC4142434445462020003000306220003011
S10B08FC2000307820002C00DC
S9030000FC
