S02B0000736576656E5F7365676D656E745F646973706C61795F31785F61726475696E6F5F6D696C6C69732E9C
S11300000C9434000C9451000C9451000C94510045
S11300100C9451000C9451000C9451000C94510018
S11300200C9451000C9451000C9451000C94510008
S11300300C9451000C9451000C9451000C945100F8
S11300400C9453000C9451000C9451000C945100E6
S11300500C9451000C9451000C9451000C945100D8
S11300600C9451000C94510011241FBECFEFD8E022
S1130070DEBFCDBF11E0A0E0B1E0E8E3F2E002C0F2
S113008005900D92AA30B107D9F721E0AAE0B1E0BA
S113009001C01D92A031B207E1F70E94AB000C949D
S11300A01A010C9400001F920F920FB60F921124A4
S11300B00F931F932F933F934F935F936F937F936C
S11300C08F939F93AF93BF9300910C0110910D01F7
S11300D020910E0130910F0180910A0190910B0142
S11300E00F5F1F4F2F4F3F4F489668EE73E00E94FB
S11300F0F200AC01CB01770FAA0BBB0B080F191F41
S11301002A1F3B1F00930C0110930D0120930E0135
S113011030930F0150930B0140930A01BF91AF91AB
S11301209F918F917F916F915F914F913F912F910B
S11301301F910F910F900FBE0F901F9018952FB71E
S1130140F89460910C0170910D0180910E019091D1
S11301500F012FBF0895CF93DF93CDB7DEB72A9752
S11301600FB6F894DEBF0FBECDBF8AE0E0E0F1E049
S1130170DE01119601900D928A95E1F78FEF8AB90D
S113018089818BB985B5836085BDEEE6F0E0808119
S11301908160808378940E949F004B015C01E12C74
S11301A0F12C0E949F008B019C01DC01CB0188197A
S11301B09909AA09BB09893E9340A105B10588F3B1
S11301C0C70101966AE070E00E94F2007C01E1E060
S11301D0F0E0EC0FFD1FE80FF91F80818BB9480197
S11301E05901DFCF97FB072E16F4009407D077FD53
S11301F009D00E94060107FC05D03EF49095819534
S11302009F4F0895709561957F4F0895AA1BBB1B5E
S113021051E107C0AA1FBB1FA617B70710F0A61B02
S1130220B70B881F991F5A95A9F780959095BC0123
S10B0230CD010895F894FFCFFD
S10D0238FC60DAF266B6BEE4FEE6EE
S9030000FC
