S01100006465626F7563696E672E7372656363
S11300000C9434000C943E000C943E000C943E007E
S11300100C943E000C943E000C943E000C943E0064
S11300200C943E000C943E000C943E000C943E0054
S11300300C943E000C943E000C943E000C943E0044
S11300400C943E000C943E000C943E000C943E0034
S11300500C943E000C943E000C943E000C943E0024
S11300600C943E000C943E0011241FBECFEFD8E048
S1130070DEBFCDBF0E9447000C9482000C940000A8
S113008080E284B915B81AB884E08BB908950E9447
S113009063000E94400080E090E04A9B04C015B8D1
S11300A080E090E0FACF892B19F48AE20E947B0069
S11300B080E285B987EA91E60197F1F700C0000074
S11300C081E090E0EACFE0ECF0E080818260808320
S11300D01092C5008FEC8093C400E2ECF0E08081C4
S11300E086608083E1ECF0E08081806180838081A0
S11300F08860808308959091C00095FFFCCF809321
S10B0100C6000895F894FFCF36
S9030000FC
