:100000000C9434000C9446000C9446000C9446006A
:100010000C9446000C9446000C9446000C94460048
:100020000C9446000C9446000C9446000C94460038
:100030000C9446000C9446000C9448000C94460026
:100040000C9446000C9446000C9446000C94460018
:100050000C9446000C9446000C9446000C94460008
:100060000C9446000C94460011241FBECFEFD8E03C
:10007000DEBFCDBF21E0A0E0B1E001C01D92A43001
:10008000B207E1F70E9460000C948F000C9400000E
:100090001F920F920FB60F9211248F939F9380910E
:1000A0000201909103010196909303018093020154
:1000B00016BC9F918F910F900FBE0F901F901895B7
:1000C0008FEF8AB98BB985B5856085BD81E087BD25
:1000D000EEE6F0E0808182608083789451E040E039
:1000E0006FEF80910201909103010197D1F7109277
:1000F0000301109202018091000190910101352FBE
:10010000242F009711F030E020E03093000120937D
:100110000101892B11F41BB8E4CF6BB9E2CFF8943D
:02012000FFCF0F
:00000001FF
