S0150000726F74617279656E636F6465722E737265638E
S11300000C9434000C9451000C9451000C94B300E3
S11300100C9451000C9451000C9451000C94510018
S11300200C9451000C9451000C9451000C94510008
S11300300C9451000C9451000C9451000C945100F8
S11300400C9451000C9451000C9451000C945100E8
S11300500C9451000C9451000C9451000C945100D8
S11300600C9451000C94510011241FBECFEFD8E022
S1130070DEBFCDBF11E0A0E0B1E0E8E4F2E002C0F1
S113008005900D92A230B107D9F721E0A2E0B1E0CA
S113009001C01D92A830B207E1F70E945F000C94E2
S11300A022010C940000E8E6F0E080818160808306
S11300B0EBE6F0E0808183628083789408958FEF8B
S11300C08AB914B89EEF9BB985B90E945300FFCF3B
S11300D080910001909101018F37910549F48EEFD1
S11300E090E090930101809300018EEF8BB9089505
S11300F0880F991F01969E7F9093010180930001C0
S11301008BB9089580910001909101018E3F910572
S113011041F48FE790E090930101809300018BB943
S113012008959595879580689093010180930001C7
S11301308BB90895209106013091070121303105D2
S113014041F4019719F40E94680008950E94820006
S11301500895232B39F4019719F40E94820008951D
S11301600E94680008951F920F920FB60F921124F7
S11301700F931F932F933F934F935F936F937F93AB
S11301808F939F93AF93BF93CF93DF93EF93FF939B
S113019083B18170C82F80E0D82F83B181FB002701
S11301A000F910E08091040190910501C817D90766
S11301B0E1F0C130D10569F40130110529F480E082
S11301C090E00E949A0011C081E090E00E949A00A1
S11301D00CC00130110529F481E090E00E949A00DE
S11301E004C080E090E00E949A001D990EC081E056
S11301F090E02091060130910701232B11F080E05B
S113020090E09093070180930601D0930501C09379
S113021004011093030100930201FF91EF91DF9118
S1130220CF91BF91AF919F918F917F916F915F918A
S11302304F913F912F911F910F910F900FBE0F90EF
S10B02401F901895F894FFCFFC
S1050248FE00B2
S9030000FC
