S02400006465626F756E63696E675F7768656E5F66756C6C5F707265737365642E737265636A
S11300000C9434000C943E000C943E000C943E007E
S11300100C943E000C943E000C943E000C943E0064
S11300200C943E000C943E000C943E000C943E0054
S11300300C943E000C943E000C943E000C943E0044
S11300400C943E000C943E000C943E000C943E0034
S11300500C943E000C943E000C943E000C943E0024
S11300600C943E000C943E0011241FBECFEFD8E048
S1130070DEBFCDBF0E9458000C948F000C9400008A
S113008080E284B915B81AB884E08BB9089599B19F
S1130090892F847092FD0AC0E3ECF9E03197F1F7FF
S11300A000C000004A9903C081E0089580E00895EB
S11300B00E9470000E944000C0E0D0E00E9447000F
S11300C0882351F0CD2B19F48AE20E94880080E243
S11300D085B9C1E0D0E0F2CF15B8C0E0D0E0EECFF2
S11300E0E0ECF0E08081826080831092C5008FECA8
S11300F08093C400E2ECF0E0808186608083E1ECD0
S1130100F0E08081806180838081886080830895AD
S11301109091C00095FFFCCF8093C6000895F89499
S1050120FFCF0B
S9030000FC
