S01F000072616E646F6D5F6E756D6265725F67656E657261746F722E7372656376
S11300000C9434000C9449000C9449000C9449005D
S11300100C9449000C9449000C9449000C94490038
S11300200C9449000C9449000C9449000C94490028
S11300300C9449000C9449000C9449000C94490018
S11300400C9449000C9449000C9449000C94490008
S11300500C9449000C9449000C9449000C944900F8
S11300600C9449000C94490011241FBECFEFD8E032
S1130070DEBFCDBF11E0A0E0B1E0E8EFF3E002C0E5
S113008005900D92AA32B107D9F70E946F000C9423
S1130090FA010C940000ACE7B0E09C9190649C934E
S11300A0EAE7F0E090819760908390819068908374
S11300B09081906290839C912C91907E892B822BCD
S11300C08C938081806480830895EAE7F0E08081E6
S11300D084FFFDCF809178009091790008950E946B
S11300E0930080E00E944B000E9465000E94BD01C5
S11300F084E091E00E94B300C4E6D0E00E94B8011D
S1130100BE010E9413018F5F0E94C2008AE00E9418
S1130110AB002FEF83ED90E3215080409040E1F756
S113012000C00000EBCFE0ECF0E0808182608083CF
S11301301092C5008FEC8093C400E2ECF0E0808163
S113014086608083E1ECF0E080818061808380813F
S1130150886080830895E0ECF0E0908195FFFDCF06
S11301608093C6000895CF93DF93EC0188818823A0
S113017031F021960E94AB0089918111FBCFDF9170
S1130180CF910895EF92FF920F931F93CF93DF9334
S113019000D000D0CDB7DEB720E330E03A83298326
S11301A01C821B82882319F1FE01319600E010E0C5
S11301B04DEC01C08901849F912D1124969596954B
S11301C09695392F330F232F220F220F230F821BD3
S11301D0805D8193892F98012F5F3F4F9111EACF62
S11301E0FE01E20FF31F118211231CF411C000E081
S11301F010E0CE01800F911F9C012E5F3F4F7901CB
S1130200F70182917F010E94AB0001501109C2F7EE
S11302100F900F900F900F90DF91CF911F910F913E
S1130220FF90EF90089597FB072E16F4009407D0E3
S113023077FD09D00E94580107FC05D03EF4909543
S113024081959F4F0895709561957F4F0895A1E220
S11302501A2EAA1BBB1BFD010DC0AA1FBB1FEE1F3C
S1130260FF1FA217B307E407F50720F0A21BB30B87
S1130270E40BF50B661F771F881F991F1A9469F703
S113028060957095809590959B01AC01BD01CF015F
S11302900895A29FB001B39FC001A39F700D811D5B
S11302A01124911DB29F700D811D1124911D08957B
S11302B0AA1BBB1B51E107C0AA1FBB1FA617B70788
S11302C010F0A61BB70B881F991F5A95A9F78095A4
S11302D09095BC01CD0108958F929F92AF92BF92E9
S11302E0CF92DF92EF92FF92CF93DF93EC0168817C
S11302F079818A819B81611571058105910521F4BC
S113030064E279ED8BE597E02DE133EF41E050E0D5
S11303100E94C80149015A019B01AC01A7EAB1E45A
S11303200E94E7016B017C01ACEEB4EFA5019401DE
S11303300E94F501DC01CB018C0D9D1DAE1DBF1D7E
S1130340B7FF03C00197A109B04888839983AA83A2
S1130350BB839F77DF91CF91FF90EF90DF90CF9099
S1130360BF90AF909F908F9008950E946C01089564
S113037080E091E00E946C010895A0E0B0E08093D9
S1130380000190930101A0930201B0930301089529
S1130390052E97FB1EF400940E94DF0157FD07D041
S11303A00E94270107FC03D04EF40C94DF01509502
S11303B04095309521953F4F4F4F5F4F089590954D
S11303C08095709561957F4F8F4F9F4F08950E9440
S11303D04901A59F900DB49F900DA49F800D911D80
S11303E011240895B7FF0C94E7010E94E701821BD2
S10B03F0930B0895F894FFCF6C
S11303F8010000002A2A2053746172742067656E14
S113040865726174696E672072616E646F6D206EC7
S10D0418756D6265722E2E2E0A0027
S9030000FC
