S0220000636F6D70617261746F725F6D617463685F696E746572727570742E7372656312
S11300000C9434000C9446000C9446000C94460066
S11300100C9446000C9446000C9446000C94460044
S11300200C9446000C9446000C9446000C94460034
S11300300C9446000C9446000C9448000C94460022
S11300400C9446000C9446000C9446000C94460014
S11300500C9446000C9446000C9446000C94460004
S11300600C9446000C94460011241FBECFEFD8E038
S1130070DEBFCDBF21E0A0E0B1E001C01D92A430FD
S1130080B207E1F70E9482000C9491000C940000E6
S11300901F920F920FB60F9211242F933F938F93B9
S11300A09F93809102019091030101969093030123
S11300B08093020116BC8091020190910301809704
S11300C0C1F41092030110920201809100019091F9
S11300D0010121E030E0009711F020E030E030939E
S11300E0010120930001892B11F41BB802C08FEF8A
S11300F08BB99F918F913F912F910F900FBE0F90CD
S11301001F9018958FEF8AB98BB985B5856085BD29
S113011080E887BDEEE6F0E0808182608083789499
S1090120FFCFF894FFCFAD
S9030000FC
