S022000041746D6567613132385F32303230313231385F546573745F51322E7372656348
S113000045C0000058C0000056C0000054C00000A5
S113001052C0000050C000004EC000004CC00000A0
S11300204AC0000048C0000046C0000044C00000B0
S113003042C0000040C000003EC000003CC00000C0
S11300403AC0000038C0000036C0000034C00000D0
S113005032C0000030C000002EC000002CC00000E0
S11300602AC0000028C0000026C0000024C00000F0
S113007022C0000020C000001EC000001CC0000000
S11300801AC0000018C0000016C0000011241FBED2
S1130090CFEFD0E1DEBFCDBF11E0A0E0B1E0ECEDE9
S11300A0F2E000E00BBF02C007900D92AA30B10746
S11300B0D9F70FD011C1A4CF809100018F3721F45B
S11300C08EEF809300010895880F8F5F8093000165
S11300D0089542E060E875E280E090E016D08FEF8A
S11300E084BB85BB8091000162D08AE044D08091BA
S11300F0000185BB2FE382E49FE0215080409040C3
S1130100E1F700C00000D8DFEDCF423031F4EBE975
S1130110F0E020812260208304C0413011F4109269
S11301209B0010929800413029F0423031F4A8E04D
S1130130B0E005C0A0E1B0E002C0A2E0B0E09B01E5
S1130140AC01BAD09B01AC0160E074E284EF90E0B2
S113015082D02150310920939900EDE9F0E08081AB
S113016086608083EAE9F0E0808180618083808119
S113017088608083089590919B0095FFFCCF8093C5
S11301809C0008950F931F93CF93DF938C01C0E0DD
S1130190D0E002C0F0DF2196F801EC0FFD1F808152
S11301A08111F8CFDF91CF911F910F9108950F9393
S11301B01F93CF93DF93CDB7DEB728970FB6F8948C
S11301C0DEBF0FBECDBF20E330E03A832983FE01BA
S11301D0339696E0DF011D929A95E9F720E030E02E
S11301E00DC0E1E0F0E0EC0FFD1FE20FF31F982FCC
S11301F09170905D908386952F5F3F4F2830310535
S113020084F3E1E0F0E0EC0FFD1FE20FF31F108236
S113021081E091E0B7DF07E010E010C0E1E0F0E03A
S1130220EC0FFD1FE00FF11F8081A5DF04301105E5
S113023019F483E091E0A6DF01501109112374F74A
S113024028960FB6F894DEBF0FBECDBFDF91CF91D5
S11302501F910F910895A1E21A2EAA1BBB1BFD0149
S11302600DC0AA1FBB1FEE1FFF1FA217B307E40791
S1130270F50720F0A21BB30BE40BF50B661F771FE9
S1130280881F991F1A9469F76095709580959095C9
S11302909B01AC01BD01CF010895A29FB001B39FA2
S11302A0C001A39F700D811D1124911DB29F700D7B
S11302B0811D1124911D0895B7FF04C003D0821B32
S11302C0930B0895EADFA59F900DB49F900DA49F12
S10F02D0800D911D11240895F894FFCFB7
S10D02DCFE3062200030782000009C
S9030000FC
