:100000000C9434000C943E000C943E000C943E0082
:100010000C943E000C943E000C943E000C943E0068
:100020000C943E000C943E000C943E000C943E0058
:100030000C943E000C943E000C943E000C943E0048
:100040000C943E000C943E000C943E000C943E0038
:100050000C943E000C943E000C943E000C943E0028
:100060000C943E000C943E0011241FBECFEFD8E04C
:10007000DEBFCDBF0E9440000C9463000C940000D2
:1000800084B1826084B9E0E8F0E08081836080839D
:10009000808180688083E1E8F0E0808184608083F3
:1000A00080E090E00BC09093890080938800EFE39C
:1000B000FCE93197F1F700C0000001968F3F9105F0
:0A00C00091F38CF3EDCFF894FFCF1D
:00000001FF
